{
  "contractName": "BankContract",
  "abi": [
    {
      "constant": false,
      "inputs": [
        {
          "name": "_name",
          "type": "bytes32"
        },
        {
          "name": "_regNumber",
          "type": "bytes32"
        },
        {
          "name": "_bankAddress",
          "type": "address"
        }
      ],
      "name": "AddBank",
      "outputs": [
        {
          "name": "",
          "type": "bool"
        }
      ],
      "payable": false,
      "stateMutability": "nonpayable",
      "type": "function"
    },
    {
      "constant": false,
      "inputs": [
        {
          "name": "_bankAddress",
          "type": "address"
        }
      ],
      "name": "RemoveBank",
      "outputs": [
        {
          "name": "",
          "type": "bool"
        }
      ],
      "payable": false,
      "stateMutability": "nonpayable",
      "type": "function"
    },
    {
      "anonymous": false,
      "inputs": [
        {
          "indexed": true,
          "name": "_bank",
          "type": "address"
        },
        {
          "indexed": true,
          "name": "_username",
          "type": "bytes32"
        },
        {
          "indexed": false,
          "name": "_timestamp",
          "type": "uint256"
        }
      ],
      "name": "AddRequestEvent",
      "type": "event"
    },
    {
      "anonymous": false,
      "inputs": [
        {
          "indexed": true,
          "name": "_bank",
          "type": "address"
        },
        {
          "indexed": true,
          "name": "_username",
          "type": "bytes32"
        },
        {
          "indexed": false,
          "name": "_timestamp",
          "type": "uint256"
        }
      ],
      "name": "RemoveRequestEvent",
      "type": "event"
    },
    {
      "anonymous": false,
      "inputs": [
        {
          "indexed": true,
          "name": "_bank",
          "type": "address"
        },
        {
          "indexed": true,
          "name": "_username",
          "type": "bytes32"
        },
        {
          "indexed": false,
          "name": "_timestamp",
          "type": "uint256"
        }
      ],
      "name": "AddCustomerEvent",
      "type": "event"
    },
    {
      "anonymous": false,
      "inputs": [
        {
          "indexed": true,
          "name": "_bank",
          "type": "address"
        },
        {
          "indexed": true,
          "name": "_username",
          "type": "bytes32"
        },
        {
          "indexed": false,
          "name": "_timestamp",
          "type": "uint256"
        }
      ],
      "name": "RemoveCustomerEvent",
      "type": "event"
    },
    {
      "anonymous": false,
      "inputs": [
        {
          "indexed": true,
          "name": "_bank",
          "type": "address"
        },
        {
          "indexed": true,
          "name": "_username",
          "type": "bytes32"
        },
        {
          "indexed": false,
          "name": "_timestamp",
          "type": "uint256"
        }
      ],
      "name": "ModifyCustomerEvent",
      "type": "event"
    },
    {
      "anonymous": false,
      "inputs": [
        {
          "indexed": true,
          "name": "_username",
          "type": "bytes32"
        },
        {
          "indexed": true,
          "name": "_votedBy",
          "type": "address"
        },
        {
          "indexed": false,
          "name": "_timestamp",
          "type": "uint256"
        }
      ],
      "name": "UpvoteCustomerEvent",
      "type": "event"
    },
    {
      "anonymous": false,
      "inputs": [
        {
          "indexed": true,
          "name": "_bank",
          "type": "address"
        },
        {
          "indexed": true,
          "name": "_votedBy",
          "type": "address"
        },
        {
          "indexed": false,
          "name": "_timestamp",
          "type": "uint256"
        }
      ],
      "name": "UpvoteBankEvent",
      "type": "event"
    },
    {
      "anonymous": false,
      "inputs": [
        {
          "indexed": true,
          "name": "_bank",
          "type": "address"
        },
        {
          "indexed": true,
          "name": "_username",
          "type": "bytes32"
        },
        {
          "indexed": false,
          "name": "_timestamp",
          "type": "uint256"
        }
      ],
      "name": "SetPasswordEvent",
      "type": "event"
    },
    {
      "anonymous": false,
      "inputs": [
        {
          "indexed": true,
          "name": "_bank",
          "type": "address"
        },
        {
          "indexed": true,
          "name": "_name",
          "type": "bytes32"
        },
        {
          "indexed": false,
          "name": "_timestamp",
          "type": "uint256"
        }
      ],
      "name": "BankAdded",
      "type": "event"
    },
    {
      "anonymous": false,
      "inputs": [
        {
          "indexed": true,
          "name": "_bank",
          "type": "address"
        },
        {
          "indexed": true,
          "name": "_name",
          "type": "bytes32"
        },
        {
          "indexed": false,
          "name": "_timestamp",
          "type": "uint256"
        }
      ],
      "name": "BankRemoved",
      "type": "event"
    },
    {
      "constant": false,
      "inputs": [
        {
          "name": "_username",
          "type": "bytes32"
        },
        {
          "name": "_customerData",
          "type": "bytes32"
        }
      ],
      "name": "AddRequest",
      "outputs": [
        {
          "name": "",
          "type": "uint256"
        }
      ],
      "payable": false,
      "stateMutability": "nonpayable",
      "type": "function"
    },
    {
      "constant": false,
      "inputs": [
        {
          "name": "_username",
          "type": "bytes32"
        },
        {
          "name": "_customerData",
          "type": "bytes32"
        }
      ],
      "name": "AddCustomer",
      "outputs": [
        {
          "name": "",
          "type": "uint256"
        }
      ],
      "payable": false,
      "stateMutability": "nonpayable",
      "type": "function"
    },
    {
      "constant": false,
      "inputs": [
        {
          "name": "_username",
          "type": "bytes32"
        },
        {
          "name": "_customerData",
          "type": "bytes32"
        }
      ],
      "name": "RemoveRequest",
      "outputs": [
        {
          "name": "",
          "type": "uint256"
        }
      ],
      "payable": false,
      "stateMutability": "nonpayable",
      "type": "function"
    },
    {
      "constant": false,
      "inputs": [
        {
          "name": "_username",
          "type": "bytes32"
        }
      ],
      "name": "RemoveCustomer",
      "outputs": [
        {
          "name": "",
          "type": "uint256"
        }
      ],
      "payable": false,
      "stateMutability": "nonpayable",
      "type": "function"
    },
    {
      "constant": false,
      "inputs": [
        {
          "name": "_username",
          "type": "bytes32"
        },
        {
          "name": "_customerData",
          "type": "bytes32"
        },
        {
          "name": "_password",
          "type": "bytes32"
        }
      ],
      "name": "ModifyCustomer",
      "outputs": [
        {
          "name": "",
          "type": "uint256"
        }
      ],
      "payable": false,
      "stateMutability": "nonpayable",
      "type": "function"
    },
    {
      "constant": true,
      "inputs": [
        {
          "name": "_username",
          "type": "bytes32"
        },
        {
          "name": "_password",
          "type": "bytes32"
        }
      ],
      "name": "viewCustomer",
      "outputs": [
        {
          "name": "",
          "type": "bytes32"
        }
      ],
      "payable": false,
      "stateMutability": "view",
      "type": "function"
    },
    {
      "constant": false,
      "inputs": [
        {
          "name": "_username",
          "type": "bytes32"
        },
        {
          "name": "_password",
          "type": "bytes32"
        }
      ],
      "name": "setPassword",
      "outputs": [
        {
          "name": "",
          "type": "bool"
        }
      ],
      "payable": false,
      "stateMutability": "nonpayable",
      "type": "function"
    },
    {
      "constant": false,
      "inputs": [
        {
          "name": "_username",
          "type": "bytes32"
        }
      ],
      "name": "upvote",
      "outputs": [
        {
          "name": "isSuccess",
          "type": "uint256"
        }
      ],
      "payable": false,
      "stateMutability": "nonpayable",
      "type": "function"
    },
    {
      "constant": true,
      "inputs": [
        {
          "name": "_bankAddress",
          "type": "address"
        }
      ],
      "name": "getBankRequests",
      "outputs": [
        {
          "components": [
            {
              "name": "Username",
              "type": "bytes32"
            },
            {
              "name": "CustomerData",
              "type": "bytes32"
            },
            {
              "name": "BankAddress",
              "type": "address"
            },
            {
              "name": "IsAllowed",
              "type": "bool"
            }
          ],
          "name": "",
          "type": "tuple[]"
        }
      ],
      "payable": false,
      "stateMutability": "view",
      "type": "function"
    },
    {
      "constant": false,
      "inputs": [
        {
          "name": "_bankAddress",
          "type": "address"
        }
      ],
      "name": "upvoteBank",
      "outputs": [
        {
          "name": "",
          "type": "uint256"
        }
      ],
      "payable": false,
      "stateMutability": "nonpayable",
      "type": "function"
    },
    {
      "constant": true,
      "inputs": [
        {
          "name": "_bankAddress",
          "type": "address"
        }
      ],
      "name": "getBankRating",
      "outputs": [
        {
          "name": "",
          "type": "uint256"
        }
      ],
      "payable": false,
      "stateMutability": "view",
      "type": "function"
    },
    {
      "constant": true,
      "inputs": [
        {
          "name": "_username",
          "type": "bytes32"
        }
      ],
      "name": "getCustomerRating",
      "outputs": [
        {
          "name": "",
          "type": "uint256"
        }
      ],
      "payable": false,
      "stateMutability": "view",
      "type": "function"
    },
    {
      "constant": true,
      "inputs": [
        {
          "name": "_username",
          "type": "bytes32"
        }
      ],
      "name": "getAccessHistory",
      "outputs": [
        {
          "name": "",
          "type": "address"
        }
      ],
      "payable": false,
      "stateMutability": "view",
      "type": "function"
    },
    {
      "constant": true,
      "inputs": [
        {
          "name": "_bankAddress",
          "type": "address"
        }
      ],
      "name": "getBankDetails",
      "outputs": [
        {
          "components": [
            {
              "name": "Name",
              "type": "bytes32"
            },
            {
              "name": "ethAddress",
              "type": "address"
            },
            {
              "name": "Rating",
              "type": "uint256"
            },
            {
              "name": "KYC_count",
              "type": "uint256"
            },
            {
              "name": "regNumber",
              "type": "bytes32"
            }
          ],
          "name": "",
          "type": "tuple"
        }
      ],
      "payable": false,
      "stateMutability": "view",
      "type": "function"
    }
  ],
  "bytecode": "0x6080604052336000806101000a81548173ffffffffffffffffffffffffffffffffffffffff021916908373ffffffffffffffffffffffffffffffffffffffff16021790555060006001819055506137b98061005b6000396000f3fe608060405234801561001057600080fd5b50600436106101005760003560e01c80637fd0d36211610097578063a5b1f44d11610066578063a5b1f44d14610345578063b1d4e35514610375578063b8144a72146103a5578063ba813865146103d557610100565b80637fd0d362146102855780638a7221cb146102b55780639025c885146102e55780639c605cb31461031557610100565b80635f7c4a3b116100d35780635f7c4a3b146101c5578063628e09ad146101f557806367676087146102255780637a08a9631461025557610100565b806315101e021461010557806347aee3331461013557806349fb94e21461016557806358fc3c3c14610195575b600080fd5b61011f600480360361011a9190810190612c46565b610405565b60405161012c9190613676565b60405180910390f35b61014f600480360361014a9190810190612c6f565b6105ec565b60405161015c9190613691565b60405180910390f35b61017f600480360361017a9190810190612c46565b610789565b60405161018c9190613691565b60405180910390f35b6101af60048036036101aa9190810190612c98565b610b74565b6040516101bc9190613400565b60405180910390f35b6101df60048036036101da9190810190612cd4565b610c7e565b6040516101ec9190613400565b60405180910390f35b61020f600480360361020a9190810190612c46565b610fa1565b60405161021c91906133de565b60405180910390f35b61023f600480360361023a9190810190612c46565b6112e1565b60405161024c9190613400565b60405180910390f35b61026f600480360361026a9190810190612c98565b6115c0565b60405161027c9190613691565b60405180910390f35b61029f600480360361029a9190810190612d23565b61187c565b6040516102ac9190613691565b60405180910390f35b6102cf60048036036102ca9190810190612c98565b611b68565b6040516102dc919061341b565b60405180910390f35b6102ff60048036036102fa9190810190612c6f565b611d49565b60405161030c91906133c3565b60405180910390f35b61032f600480360361032a9190810190612c98565b611e6d565b60405161033c9190613691565b60405180910390f35b61035f600480360361035a9190810190612c6f565b612074565b60405161036c9190613691565b60405180910390f35b61038f600480360361038a9190810190612c6f565b612468565b60405161039c9190613691565b60405180910390f35b6103bf60048036036103ba9190810190612c46565b61256c565b6040516103cc9190613691565b60405180910390f35b6103ef60048036036103ea9190810190612c98565b6126c8565b6040516103fc9190613691565b60405180910390f35b61040d612b45565b6000801b600260003373ffffffffffffffffffffffffffffffffffffffff1673ffffffffffffffffffffffffffffffffffffffff168152602001908152602001600020600401541415610495576040517f08c379a000000000000000000000000000000000000000000000000000000000815260040161048c906135d6565b60405180910390fd5b6000801b600260008473ffffffffffffffffffffffffffffffffffffffff1673ffffffffffffffffffffffffffffffffffffffff16815260200190815260200160002060040154141561051d576040517f08c379a000000000000000000000000000000000000000000000000000000000815260040161051490613616565b60405180910390fd5b600260008373ffffffffffffffffffffffffffffffffffffffff1673ffffffffffffffffffffffffffffffffffffffff1681526020019081526020016000206040518060a0016040529081600082015481526020016001820160009054906101000a900473ffffffffffffffffffffffffffffffffffffffff1673ffffffffffffffffffffffffffffffffffffffff1673ffffffffffffffffffffffffffffffffffffffff16815260200160028201548152602001600382015481526020016004820154815250509050919050565b60008060001b600260003373ffffffffffffffffffffffffffffffffffffffff1673ffffffffffffffffffffffffffffffffffffffff168152602001908152602001600020600401541415610676576040517f08c379a000000000000000000000000000000000000000000000000000000000815260040161066d906135d6565b60405180910390fd5b816000801b600560008381526020019081526020016000206001015414156106d3576040517f08c379a00000000000000000000000000000000000000000000000000000000081526004016106ca906135f6565b60405180910390fd5b600560008481526020019081526020016000206000808201600090556001820160009055600282016000905560038201600090556004820160006101000a81549073ffffffffffffffffffffffffffffffffffffffff02191690555050823373ffffffffffffffffffffffffffffffffffffffff167f2097ebc037512c11a7f76339393b5caeefea75e03a2f283c859b0ab28cbc6ae6426040516107779190613691565b60405180910390a36001915050919050565b60008060001b600260003373ffffffffffffffffffffffffffffffffffffffff1673ffffffffffffffffffffffffffffffffffffffff168152602001908152602001600020600401541415610813576040517f08c379a000000000000000000000000000000000000000000000000000000000815260040161080a906135d6565b60405180910390fd5b8160008090505b600360008373ffffffffffffffffffffffffffffffffffffffff1673ffffffffffffffffffffffffffffffffffffffff1681526020019081526020016000208054905081101561095b573373ffffffffffffffffffffffffffffffffffffffff16600360008473ffffffffffffffffffffffffffffffffffffffff1673ffffffffffffffffffffffffffffffffffffffff16815260200190815260200160002082815481106108c557fe5b9060005260206000200160009054906101000a900473ffffffffffffffffffffffffffffffffffffffff1673ffffffffffffffffffffffffffffffffffffffff16141561094e57600061094d576040517f08c379a000000000000000000000000000000000000000000000000000000000815260040161094490613476565b60405180910390fd5b5b808060010191505061081a565b503373ffffffffffffffffffffffffffffffffffffffff168373ffffffffffffffffffffffffffffffffffffffff1614156109cb576040517f08c379a00000000000000000000000000000000000000000000000000000000081526004016109c290613516565b60405180910390fd5b600360008473ffffffffffffffffffffffffffffffffffffffff1673ffffffffffffffffffffffffffffffffffffffff1681526020019081526020016000203390806001815401808255809150509060018203906000526020600020016000909192909190916101000a81548173ffffffffffffffffffffffffffffffffffffffff021916908373ffffffffffffffffffffffffffffffffffffffff160217905550506001546064600360008673ffffffffffffffffffffffffffffffffffffffff1673ffffffffffffffffffffffffffffffffffffffff168152602001908152602001600020805490500281610abe57fe5b04600260008573ffffffffffffffffffffffffffffffffffffffff1673ffffffffffffffffffffffffffffffffffffffff168152602001908152602001600020600201819055503373ffffffffffffffffffffffffffffffffffffffff168373ffffffffffffffffffffffffffffffffffffffff167f40bf3f16bb4ac818d2d337451b46aaea37c1722baac3b5bd4bf39662c3f783f942604051610b629190613691565b60405180910390a36001915050919050565b60008060001b600260003373ffffffffffffffffffffffffffffffffffffffff1673ffffffffffffffffffffffffffffffffffffffff168152602001908152602001600020600401541415610bfe576040517f08c379a0000000000000000000000000000000000000000000000000000000008152600401610bf5906135d6565b60405180910390fd5b826000801b60056000838152602001908152602001600020600101541415610c5b576040517f08c379a0000000000000000000000000000000000000000000000000000000008152600401610c52906135f6565b60405180910390fd5b826007600086815260200190815260200160002081905550600191505092915050565b60003373ffffffffffffffffffffffffffffffffffffffff166000809054906101000a900473ffffffffffffffffffffffffffffffffffffffff1673ffffffffffffffffffffffffffffffffffffffff1614610d0f576040517f08c379a0000000000000000000000000000000000000000000000000000000008152600401610d06906134d6565b60405180910390fd5b6000801b600260008473ffffffffffffffffffffffffffffffffffffffff1673ffffffffffffffffffffffffffffffffffffffff1681526020019081526020016000206004015414610d96576040517f08c379a0000000000000000000000000000000000000000000000000000000008152600401610d8d90613576565b60405180910390fd5b83600260008473ffffffffffffffffffffffffffffffffffffffff1673ffffffffffffffffffffffffffffffffffffffff1681526020019081526020016000206000018190555081600260008473ffffffffffffffffffffffffffffffffffffffff1673ffffffffffffffffffffffffffffffffffffffff16815260200190815260200160002060010160006101000a81548173ffffffffffffffffffffffffffffffffffffffff021916908373ffffffffffffffffffffffffffffffffffffffff16021790555082600260008473ffffffffffffffffffffffffffffffffffffffff1673ffffffffffffffffffffffffffffffffffffffff168152602001908152602001600020600401819055506000600260008473ffffffffffffffffffffffffffffffffffffffff1673ffffffffffffffffffffffffffffffffffffffff168152602001908152602001600020600301819055506000600260008473ffffffffffffffffffffffffffffffffffffffff1673ffffffffffffffffffffffffffffffffffffffff16815260200190815260200160002060020181905550600160008154809291906001019190505550838273ffffffffffffffffffffffffffffffffffffffff167f99c2b4245cc31180d9a62626bb421321fc6180807f765d4a6907b0a96cc64c3942604051610f8e9190613691565b60405180910390a3600190509392505050565b60606000801b600260003373ffffffffffffffffffffffffffffffffffffffff1673ffffffffffffffffffffffffffffffffffffffff16815260200190815260200160002060040154141561102b576040517f08c379a0000000000000000000000000000000000000000000000000000000008152600401611022906135d6565b60405180910390fd5b6000600260008473ffffffffffffffffffffffffffffffffffffffff1673ffffffffffffffffffffffffffffffffffffffff16815260200190815260200160002060030154116110b0576040517f08c379a00000000000000000000000000000000000000000000000000000000081526004016110a790613596565b60405180910390fd5b6060600260008473ffffffffffffffffffffffffffffffffffffffff1673ffffffffffffffffffffffffffffffffffffffff1681526020019081526020016000206003015460405190808252806020026020018201604052801561112e57816020015b61111b612b90565b8152602001906001900390816111135790505b509050600080905060008090505b600480549050811015611293578473ffffffffffffffffffffffffffffffffffffffff166004828154811061116d57fe5b906000526020600020906003020160020160009054906101000a900473ffffffffffffffffffffffffffffffffffffffff1673ffffffffffffffffffffffffffffffffffffffff16141561128657600481815481106111c857fe5b906000526020600020906003020160405180608001604052908160008201548152602001600182015481526020016002820160009054906101000a900473ffffffffffffffffffffffffffffffffffffffff1673ffffffffffffffffffffffffffffffffffffffff1673ffffffffffffffffffffffffffffffffffffffff1681526020016002820160149054906101000a900460ff16151515158152505083838151811061127257fe5b602002602001018190525081806001019250505b808060010191505061113c565b50600081116112d7576040517f08c379a00000000000000000000000000000000000000000000000000000000081526004016112ce906135b6565b60405180910390fd5b8192505050919050565b60003373ffffffffffffffffffffffffffffffffffffffff166000809054906101000a900473ffffffffffffffffffffffffffffffffffffffff1673ffffffffffffffffffffffffffffffffffffffff1614611372576040517f08c379a0000000000000000000000000000000000000000000000000000000008152600401611369906134d6565b60405180910390fd5b6000600154116113b7576040517f08c379a00000000000000000000000000000000000000000000000000000000081526004016113ae90613636565b60405180910390fd5b6000801b600260008473ffffffffffffffffffffffffffffffffffffffff1673ffffffffffffffffffffffffffffffffffffffff16815260200190815260200160002060040154141561143f576040517f08c379a000000000000000000000000000000000000000000000000000000000815260040161143690613456565b60405180910390fd5b600260008373ffffffffffffffffffffffffffffffffffffffff1673ffffffffffffffffffffffffffffffffffffffff1681526020019081526020016000206000808201600090556001820160006101000a81549073ffffffffffffffffffffffffffffffffffffffff02191690556002820160009055600382016000905560048201600090555050600360008373ffffffffffffffffffffffffffffffffffffffff1673ffffffffffffffffffffffffffffffffffffffff16815260200190815260200160002060006115139190612bd6565b60016000815480929190600190039190505550600260008373ffffffffffffffffffffffffffffffffffffffff1673ffffffffffffffffffffffffffffffffffffffff168152602001908152602001600020600001548273ffffffffffffffffffffffffffffffffffffffff167f228e3a6d9ded2f99fd9d71d5652bfead2856e586d8ebd67ba47333274ec67089426040516115af9190613691565b60405180910390a360019050919050565b60008060001b600260003373ffffffffffffffffffffffffffffffffffffffff1673ffffffffffffffffffffffffffffffffffffffff16815260200190815260200160002060040154141561164a576040517f08c379a0000000000000000000000000000000000000000000000000000000008152600401611641906135d6565b60405180910390fd5b60008090506032600260003373ffffffffffffffffffffffffffffffffffffffff1673ffffffffffffffffffffffffffffffffffffffff1681526020019081526020016000206002015411806116e257506000600260003373ffffffffffffffffffffffffffffffffffffffff1673ffffffffffffffffffffffffffffffffffffffff16815260200190815260200160002060030154145b156116ec57600190505b600460405180608001604052808681526020018581526020013373ffffffffffffffffffffffffffffffffffffffff16815260200183151581525090806001815401808255809150509060018203906000526020600020906003020160009091929091909150600082015181600001556020820151816001015560408201518160020160006101000a81548173ffffffffffffffffffffffffffffffffffffffff021916908373ffffffffffffffffffffffffffffffffffffffff16021790555060608201518160020160146101000a81548160ff021916908315150217905550505050600260003373ffffffffffffffffffffffffffffffffffffffff1673ffffffffffffffffffffffffffffffffffffffff16815260200190815260200160002060030160008154809291906001019190505550833373ffffffffffffffffffffffffffffffffffffffff167fa854831453972bd637ce11fd60b04604b56621b7035d793ec498ca3ca61208ba426040516118699190613691565b60405180910390a3600191505092915050565b60008060001b600260003373ffffffffffffffffffffffffffffffffffffffff1673ffffffffffffffffffffffffffffffffffffffff168152602001908152602001600020600401541415611906576040517f08c379a00000000000000000000000000000000000000000000000000000000081526004016118fd906135d6565b60405180910390fd5b836000801b60056000838152602001908152602001600020600101541415611963576040517f08c379a000000000000000000000000000000000000000000000000000000000815260040161195a906135f6565b60405180910390fd5b6000801b6007600087815260200190815260200160002054146119da57826007600087815260200190815260200160002054146119d5576040517f08c379a00000000000000000000000000000000000000000000000000000000081526004016119cc906134f6565b60405180910390fd5b611a3d565b7f30000000000000000000000000000000000000000000000000000000000000008314611a3c576040517f08c379a0000000000000000000000000000000000000000000000000000000008152600401611a3390613496565b60405180910390fd5b5b611a4685612a10565b8360056000878152602001908152602001600020600101819055506000600560008781526020019081526020016000206002018190555060006005600087815260200190815260200160002060030181905550336005600087815260200190815260200160002060040160006101000a81548173ffffffffffffffffffffffffffffffffffffffff021916908373ffffffffffffffffffffffffffffffffffffffff160217905550600860008681526020019081526020016000206000611b0d9190612bd6565b843373ffffffffffffffffffffffffffffffffffffffff167f3b57b46844b2b8b527a57a08c429b5f1b70880d614f82d457159d5dd699ad52d42604051611b549190613691565b60405180910390a360019150509392505050565b60008060001b600260003373ffffffffffffffffffffffffffffffffffffffff1673ffffffffffffffffffffffffffffffffffffffff168152602001908152602001600020600401541415611bf2576040517f08c379a0000000000000000000000000000000000000000000000000000000008152600401611be9906135d6565b60405180910390fd5b826000801b60056000838152602001908152602001600020600101541415611c4f576040517f08c379a0000000000000000000000000000000000000000000000000000000008152600401611c46906135f6565b60405180910390fd5b6000801b600760008681526020019081526020016000205414611cc65782600760008681526020019081526020016000205414611cc1576040517f08c379a0000000000000000000000000000000000000000000000000000000008152600401611cb8906134f6565b60405180910390fd5b611d29565b7f30000000000000000000000000000000000000000000000000000000000000008314611d28576040517f08c379a0000000000000000000000000000000000000000000000000000000008152600401611d1f90613496565b60405180910390fd5b5b600560008581526020019081526020016000206001015491505092915050565b60008060001b600260003373ffffffffffffffffffffffffffffffffffffffff1673ffffffffffffffffffffffffffffffffffffffff168152602001908152602001600020600401541415611dd3576040517f08c379a0000000000000000000000000000000000000000000000000000000008152600401611dca906135d6565b60405180910390fd5b6000801b60056000848152602001908152602001600020600101541415611e2f576040517f08c379a0000000000000000000000000000000000000000000000000000000008152600401611e26906135f6565b60405180910390fd5b6005600083815260200190815260200160002060040160009054906101000a900473ffffffffffffffffffffffffffffffffffffffff169050919050565b60008060001b600260003373ffffffffffffffffffffffffffffffffffffffff1673ffffffffffffffffffffffffffffffffffffffff168152602001908152602001600020600401541415611ef7576040517f08c379a0000000000000000000000000000000000000000000000000000000008152600401611eee906135d6565b60405180910390fd5b600080905060008090505b600480549050811015611fd9578460048281548110611f1d57fe5b906000526020600020906003020160000154148015611f5957508360048281548110611f4557fe5b906000526020600020906003020160010154145b15611fcc576001915060048181548110611f6f57fe5b906000526020600020906003020160008082016000905560018201600090556002820160006101000a81549073ffffffffffffffffffffffffffffffffffffffff02191690556002820160146101000a81549060ff021916905550505b8080600101915050611f02565b508061201a576040517f08c379a0000000000000000000000000000000000000000000000000000000008152600401612011906134b6565b60405180910390fd5b833373ffffffffffffffffffffffffffffffffffffffff167f03c7d1402cb2bbe6280e26acd0d75621496c477d94a7645296036d133096b4e4426040516120619190613691565b60405180910390a3600191505092915050565b60008060001b600260003373ffffffffffffffffffffffffffffffffffffffff1673ffffffffffffffffffffffffffffffffffffffff1681526020019081526020016000206004015414156120fe576040517f08c379a00000000000000000000000000000000000000000000000000000000081526004016120f5906135d6565b60405180910390fd5b816000801b6005600083815260200190815260200160002060010154141561215b576040517f08c379a0000000000000000000000000000000000000000000000000000000008152600401612152906135f6565b60405180910390fd5b8260008090505b600860008381526020019081526020016000208054905081101561224b573373ffffffffffffffffffffffffffffffffffffffff166008600084815260200190815260200160002082815481106121b557fe5b9060005260206000200160009054906101000a900473ffffffffffffffffffffffffffffffffffffffff1673ffffffffffffffffffffffffffffffffffffffff16141561223e57600061223d576040517f08c379a000000000000000000000000000000000000000000000000000000000815260040161223490613436565b60405180910390fd5b5b8080600101915050612162565b50600160056000868152602001908152602001600020600201540160056000868152602001908152602001600020600201819055506001546064600560008781526020019081526020016000206002015402816122a457fe5b046005600086815260200190815260200160002060030181905550603260056000868152602001908152602001600020600301541115612397576005600085815260200190815260200160002060066000868152602001908152602001600020600082015481600001556001820154816001015560028201548160020155600382015481600301556004820160009054906101000a900473ffffffffffffffffffffffffffffffffffffffff168160040160006101000a81548173ffffffffffffffffffffffffffffffffffffffff021916908373ffffffffffffffffffffffffffffffffffffffff1602179055509050505b600860008581526020019081526020016000203390806001815401808255809150509060018203906000526020600020016000909192909190916101000a81548173ffffffffffffffffffffffffffffffffffffffff021916908373ffffffffffffffffffffffffffffffffffffffff160217905550503373ffffffffffffffffffffffffffffffffffffffff16847f62930b8b13bb5d0571c2b02c92fc07f06e2990cea315c48c5b0a6c5355b99997426040516124559190613691565b60405180910390a3600192505050919050565b60008060001b600260003373ffffffffffffffffffffffffffffffffffffffff1673ffffffffffffffffffffffffffffffffffffffff1681526020019081526020016000206004015414156124f2576040517f08c379a00000000000000000000000000000000000000000000000000000000081526004016124e9906135d6565b60405180910390fd5b6000801b6005600084815260200190815260200160002060010154141561254e576040517f08c379a0000000000000000000000000000000000000000000000000000000008152600401612545906135f6565b60405180910390fd5b60056000838152602001908152602001600020600301549050919050565b60008060001b600260003373ffffffffffffffffffffffffffffffffffffffff1673ffffffffffffffffffffffffffffffffffffffff1681526020019081526020016000206004015414156125f6576040517f08c379a00000000000000000000000000000000000000000000000000000000081526004016125ed906135d6565b60405180910390fd5b6000801b600260008473ffffffffffffffffffffffffffffffffffffffff1673ffffffffffffffffffffffffffffffffffffffff16815260200190815260200160002060040154141561267e576040517f08c379a000000000000000000000000000000000000000000000000000000000815260040161267590613616565b60405180910390fd5b600260008373ffffffffffffffffffffffffffffffffffffffff1673ffffffffffffffffffffffffffffffffffffffff168152602001908152602001600020600201549050919050565b60008060001b600260003373ffffffffffffffffffffffffffffffffffffffff1673ffffffffffffffffffffffffffffffffffffffff168152602001908152602001600020600401541415612752576040517f08c379a0000000000000000000000000000000000000000000000000000000008152600401612749906135d6565b60405180910390fd5b826000809050600080905060008090505b60048054905081101561280c57836004828154811061277e57fe5b90600052602060002090600302016000015414156127ff5760019150600481815481106127a757fe5b906000526020600020906003020160020160149054906101000a900460ff16156127fe57600481815481106127d857fe5b906000526020600020906003020160020160149054906101000a900460ff16925061280c565b5b8080600101915050612763565b508061284d576040517f08c379a000000000000000000000000000000000000000000000000000000000815260040161284490613556565b60405180910390fd5b8161288d576040517f08c379a000000000000000000000000000000000000000000000000000000000815260040161288490613536565b60405180910390fd5b6000801b6005600088815260200190815260200160002060010154146128e8576040517f08c379a00000000000000000000000000000000000000000000000000000000081526004016128df90613656565b60405180910390fd5b6128f186612a91565b8560056000888152602001908152602001600020600001819055508460056000888152602001908152602001600020600101819055506000600560008881526020019081526020016000206002018190555060006005600088815260200190815260200160002060030181905550336005600088815260200190815260200160002060040160006101000a81548173ffffffffffffffffffffffffffffffffffffffff021916908373ffffffffffffffffffffffffffffffffffffffff160217905550853373ffffffffffffffffffffffffffffffffffffffff167f1b7484b796c5070c24c51cf0a747198289c2accdb101a4836ffad6d889a061a3426040516129fb9190613691565b60405180910390a36001935050505092915050565b6000801b600660008381526020019081526020016000206001015414612a8e57600660008281526020019081526020016000206000808201600090556001820160009055600282016000905560038201600090556004820160006101000a81549073ffffffffffffffffffffffffffffffffffffffff021916905550505b50565b60008090505b600480549050811015612b41578160048281548110612ab257fe5b9060005260206000209060030201600001541415612b345760048181548110612ad757fe5b906000526020600020906003020160008082016000905560018201600090556002820160006101000a81549073ffffffffffffffffffffffffffffffffffffffff02191690556002820160146101000a81549060ff021916905550505b8080600101915050612a97565b5050565b6040518060a0016040528060008019168152602001600073ffffffffffffffffffffffffffffffffffffffff1681526020016000815260200160008152602001600080191681525090565b60405180608001604052806000801916815260200160008019168152602001600073ffffffffffffffffffffffffffffffffffffffff1681526020016000151581525090565b5080546000825590600052602060002090810190612bf49190612bf7565b50565b612c1991905b80821115612c15576000816000905550600101612bfd565b5090565b90565b600081359050612c2b81613748565b92915050565b600081359050612c408161375f565b92915050565b600060208284031215612c5857600080fd5b6000612c6684828501612c1c565b91505092915050565b600060208284031215612c8157600080fd5b6000612c8f84828501612c31565b91505092915050565b60008060408385031215612cab57600080fd5b6000612cb985828601612c31565b9250506020612cca85828601612c31565b9150509250929050565b600080600060608486031215612ce957600080fd5b6000612cf786828701612c31565b9350506020612d0886828701612c31565b9250506040612d1986828701612c1c565b9150509250925092565b600080600060608486031215612d3857600080fd5b6000612d4686828701612c31565b9350506020612d5786828701612c31565b9250506040612d6886828701612c31565b9150509250925092565b6000612d7e8383613350565b60808301905092915050565b612d93816136f6565b82525050565b612da2816136f6565b82525050565b6000612db3826136bc565b612dbd81856136d4565b9350612dc8836136ac565b8060005b83811015612df9578151612de08882612d72565b9750612deb836136c7565b925050600181019050612dcc565b5085935050505092915050565b612e0f81613708565b82525050565b612e1e81613708565b82525050565b612e2d81613714565b82525050565b612e3c81613714565b82525050565b6000612e4f601d836136e5565b91507f42616e6b416c72656164795570766f746564466f72437573746f6d65720000006000830152602082019050919050565b6000612e8f6010836136e5565b91507f42616e6b446f65734e6f744578697374000000000000000000000000000000006000830152602082019050919050565b6000612ecf6019836136e5565b91507f42616e6b416c72656164795570766f746564466f7242616e6b000000000000006000830152602082019050919050565b6000612f0f6018836136e5565b91507f496e636f727265637444656661756c7450617373776f726400000000000000006000830152602082019050919050565b6000612f4f6013836136e5565b91507f4e6f5375636852657175657374457869737473000000000000000000000000006000830152602082019050919050565b6000612f8f600a836136e5565b91507f4e6f74416e41646d696e000000000000000000000000000000000000000000006000830152602082019050919050565b6000612fcf6011836136e5565b91507f496e636f727265637450617373776f72640000000000000000000000000000006000830152602082019050919050565b600061300f600e836136e5565b91507f43616e6e6f7453656c66566f74650000000000000000000000000000000000006000830152602082019050919050565b600061304f601b836136e5565b91507f437573746f6d65724e6f74416c6c6f776564546f50726f6365737300000000006000830152602082019050919050565b600061308f6019836136e5565b91507f437573746f6d6572526571756573744e6f7443726561746564000000000000006000830152602082019050919050565b60006130cf6011836136e5565b91507f42616e6b416c72656164794578697374730000000000000000000000000000006000830152602082019050919050565b600061310f6016836136e5565b91507f4e6f52657175657374457869737473466f7242616e6b000000000000000000006000830152602082019050919050565b600061314f6016836136e5565b91507f4e6f50656e64696e6752657175657374734578697374000000000000000000006000830152602082019050919050565b600061318f6011836136e5565b91507f42616e6b446f65734e6f744578697374730000000000000000000000000000006000830152602082019050919050565b60006131cf6015836136e5565b91507f437573746f6d6572446f65734e6f7445786973747300000000000000000000006000830152602082019050919050565b600061320f601a836136e5565b91507f52657175657374656442616e6b446f65734e6f744578697374730000000000006000830152602082019050919050565b600061324f600c836136e5565b91507f4e6f42616e6b73416464656400000000000000000000000000000000000000006000830152602082019050919050565b600061328f6028836136e5565b91507f437573746f6d65725769746854686553616d65557365726e616d65416c72656160008301527f64794578697374730000000000000000000000000000000000000000000000006020830152604082019050919050565b60a0820160008201516132fe6000850182612e24565b5060208201516133116020850182612d8a565b50604082015161332460408501826133a5565b50606082015161333760608501826133a5565b50608082015161334a6080850182612e24565b50505050565b6080820160008201516133666000850182612e24565b5060208201516133796020850182612e24565b50604082015161338c6040850182612d8a565b50606082015161339f6060850182612e06565b50505050565b6133ae8161373e565b82525050565b6133bd8161373e565b82525050565b60006020820190506133d86000830184612d99565b92915050565b600060208201905081810360008301526133f88184612da8565b905092915050565b60006020820190506134156000830184612e15565b92915050565b60006020820190506134306000830184612e33565b92915050565b6000602082019050818103600083015261344f81612e42565b9050919050565b6000602082019050818103600083015261346f81612e82565b9050919050565b6000602082019050818103600083015261348f81612ec2565b9050919050565b600060208201905081810360008301526134af81612f02565b9050919050565b600060208201905081810360008301526134cf81612f42565b9050919050565b600060208201905081810360008301526134ef81612f82565b9050919050565b6000602082019050818103600083015261350f81612fc2565b9050919050565b6000602082019050818103600083015261352f81613002565b9050919050565b6000602082019050818103600083015261354f81613042565b9050919050565b6000602082019050818103600083015261356f81613082565b9050919050565b6000602082019050818103600083015261358f816130c2565b9050919050565b600060208201905081810360008301526135af81613102565b9050919050565b600060208201905081810360008301526135cf81613142565b9050919050565b600060208201905081810360008301526135ef81613182565b9050919050565b6000602082019050818103600083015261360f816131c2565b9050919050565b6000602082019050818103600083015261362f81613202565b9050919050565b6000602082019050818103600083015261364f81613242565b9050919050565b6000602082019050818103600083015261366f81613282565b9050919050565b600060a08201905061368b60008301846132e8565b92915050565b60006020820190506136a660008301846133b4565b92915050565b6000819050602082019050919050565b600081519050919050565b6000602082019050919050565b600082825260208201905092915050565b600082825260208201905092915050565b60006137018261371e565b9050919050565b60008115159050919050565b6000819050919050565b600073ffffffffffffffffffffffffffffffffffffffff82169050919050565b6000819050919050565b613751816136f6565b811461375c57600080fd5b50565b61376881613714565b811461377357600080fd5b5056fea365627a7a72305820b649a580e753279d4d2b8442e6becd8565bcdbb340b7c08253cd093e2b1414ad6c6578706572696d656e74616cf564736f6c63430005090040",
  "source": "pragma solidity ^0.5.9;\n// Using ABIEncoderV2 to return array of struct and struct object in gatBankDetails and getBankRequest in BankContract.\npragma experimental ABIEncoderV2;\n\n\n//AdminContract to implement the admin interface methods. Used this approach to segregate admin and bank functionality.\ncontract AdminContract{\n    \n    address admin;\n    uint noOfBanks;\n    \n    struct Bank {\n\t\tbytes32 Name;\n\t\taddress ethAddress;\n\t\tuint Rating;\n\t\tuint KYC_count;\n\t\tbytes32 regNumber;\n\t} \n\t\n\t// setting the address deploying the contract as admin\n\tconstructor() public {\n\t    admin = msg.sender;\n\t    noOfBanks = 0;\n\t}\n\t\n\t// Mapping to store bank details and upvotes for a bank by other banks. Using bank address as the unique identifier.\n\tmapping (address => Bank) banks;\n\tmapping (address => address[]) banksUpvoted;\n\n\t// Events for admin functionality. Event emitted on success to monitor timestamp of action. \t\n\tevent BankAdded(address indexed _bank,bytes32 indexed _name, uint256 _timestamp);\n\tevent BankRemoved(address indexed _bank,bytes32 indexed _name, uint256 _timestamp);\n\t\n\tfunction AddBank (bytes32 _name,bytes32 _regNumber,address _bankAddress) isAdmin external returns(bool){\n\t    // checking if bank already exists in mapping, for non existing bank address value will be default \"0\". So checking if bank is already added.\n\t\t// Not handling data validations as they can be done on UI like regNumber should not be empty or incorrect format.\n\t    require(banks[_bankAddress].regNumber == 0 ,\"BankAlreadyExists\");\n\t    \n\t    banks[_bankAddress].Name = _name;\n\t    banks[_bankAddress].ethAddress = _bankAddress;\n\t    banks[_bankAddress].regNumber = _regNumber;\n\t    banks[_bankAddress].KYC_count = 0;\n\t    banks[_bankAddress].Rating = 0;\n\t    \n\t    noOfBanks ++;\n\t    \n\t    emit BankAdded(_bankAddress,_name,now);\n\t    return true;\n\t}\n\t\n\tfunction RemoveBank (address _bankAddress) isAdmin external returns(bool){\n\t\t// check to see if any bank exists in the system or the requested bank exists in the system\n\t    \n\t    require(noOfBanks > 0,\"NoBanksAdded\");\n\t    require(banks[_bankAddress].regNumber != 0 ,\"BankDoesNotExist\");\n\t    \n        delete banks[_bankAddress];\n        delete banksUpvoted[_bankAddress];\n        \n        noOfBanks --;\n       \n        emit BankRemoved(_bankAddress,banks[_bankAddress].Name,now);\n\t    return true;\n\t}\n\t\n\t// function modifier to check if sender of transaction is admin or not.\n\tmodifier isAdmin() { \n\t    require(admin == msg.sender,\"NotAnAdmin\");\n\t\t_;\n\t}\n}\n\ncontract BankContract is AdminContract {\n\n\tstruct Customer {\n\t\tbytes32 Username;\n\t\tbytes32 CustomerData;\n\t\tuint Upvotes; \n\t\tuint Rating;\n\t\taddress Bank;\n\t}\n\n\tstruct KYCRequest{\n\t\tbytes32 Username;\n\t\tbytes32 CustomerData;\n\t\taddress BankAddress;\n\t\tbool IsAllowed;\n\t}\n\t\n\t /*\n\t Created request array to store all the requests. As there can be multiple request with same username mapping(username => KYCRequest) was not possible.\n\t mapping(username => customerdata => KYCRequest) made sense but there is no guarantee that data will be diffrent in other request for same username.\n\t mapping(username => KYCRequest[]) was also an option but too fetch bank requests might need another mapping mapping(bankAddress => KYCRequest[]) as iterating on mapping is not possible.\n\t */\n\t /*\n\t Understanding array usage makes system not scalable and two mapping can be used to cover all fuctionality but storage as the most costly factor decided to go with array currently.\n\t */\n\t \n\tKYCRequest[] requests;\n\t\n\t/*\n\tmapping for customers, final_customers, passwords and upvotes for a customer by banks. \n\tPassword can be part of Customer strut but made it a mapping as it was not instructed to make change in the struct.\n\t*/\n\tmapping (bytes32 => Customer) customers;\n\tmapping (bytes32 => Customer) final_customer;\n\tmapping (bytes32 => bytes32) passwords;\n\tmapping (bytes32 => address[]) upvotes;\n\t\n\t// Events to monitor activity of user for bank functionality affecting the state of data.\n\tevent AddRequestEvent(address indexed _bank, bytes32 indexed _username, uint256 _timestamp);\n\tevent RemoveRequestEvent(address indexed _bank, bytes32 indexed _username, uint256 _timestamp);\n\tevent AddCustomerEvent(address indexed _bank, bytes32 indexed _username, uint256 _timestamp);\n\tevent RemoveCustomerEvent(address indexed _bank, bytes32 indexed _username, uint256 _timestamp);\n\tevent ModifyCustomerEvent(address indexed _bank, bytes32 indexed _username, uint256 _timestamp);\n\tevent UpvoteCustomerEvent(bytes32 indexed _username, address indexed _votedBy, uint256 _timestamp);\n\tevent UpvoteBankEvent(address indexed _bank, address indexed _votedBy, uint256 _timestamp);\n\tevent SetPasswordEvent(address indexed _bank, bytes32 indexed _username, uint256 _timestamp);\n\n\t/*\n\tFormulating isAllowed based on bank rating. Setting isAllowed true for first bank request otherwise it will not be able to process or bank has to enter the request again to process.\n\tFunctionality mentioned didn't provide any instruction to handle this or we have to give rating before processing any customer so that for those request isAllowed set to true for process.\n\tConsidering it will receieve rating once few requests are process.\n\t*/ \n\tfunction AddRequest (bytes32 _username,bytes32 _customerData) isBankValid external returns(uint) {\n\t\tbool isAllowed = false;\n\t\tif(banks[msg.sender].Rating > 50 || banks[msg.sender].KYC_count == 0){\n\t\t    isAllowed = true;\n\t\t}\n\t\trequests.push( KYCRequest(_username,_customerData,msg.sender,isAllowed) );\n\t\tbanks[msg.sender].KYC_count++;\n\t\temit AddRequestEvent(msg.sender,_username,now);\n\t\treturn 1;\n\t}\n\n\t/*\n\tRemoving all requests with that username when gets added as customer.\n\t*/\n\tfunction AddCustomer(bytes32 _username,bytes32 _customerData) isBankValid isCustomerAllowed(_username) external returns(uint) {\n        require(customers[_username].CustomerData == 0,\"CustomerWithTheSameUsernameAlreadyExists\");\n        RemoveAllRequest(_username);\n        customers[_username].Username = _username;\n        customers[_username].CustomerData  = _customerData;\n        customers[_username].Upvotes = 0;\n        customers[_username].Rating = 0;\n        customers[_username].Bank = msg.sender;\n        emit AddCustomerEvent(msg.sender,_username,now);\n        return 1;\n\t}\n\n\tfunction RemoveAllRequest(bytes32 _username) internal {\n        for(uint i=0; i<requests.length; i++){\n            if(requests[i].Username == _username){\n                delete requests[i];\n            }\n        }\n\t}\n\t\n\t// Understand that this is not scalable but considering requests will proccesed quickly and size will not grow out of hand.\n\tfunction RemoveRequest(bytes32 _username,bytes32 _customerData) isBankValid external returns (uint) {\n\t    bool requestExists = false;\n\t    for(uint i=0;i<requests.length;i++){\n\t        if(requests[i].Username == _username && requests[i].CustomerData == _customerData ){\n                requestExists = true;\n                delete requests[i];\n\t        }\n\t    }\n        require(requestExists,\"NoSuchRequestExists\");\n        emit RemoveRequestEvent(msg.sender,_username,now);\n        return 1;\n\t}\n\n\tfunction RemoveCustomer(bytes32 _username) isBankValid isCustomerValid(_username) external returns (uint) {\n        delete customers[_username];\n        emit RemoveCustomerEvent(msg.sender,_username,now);\n        return 1;\n\t}\n\n\t// Checking password. If not present in password mapping checking for default password. Removing customer from final list and all upvotes by banks.\n\tfunction ModifyCustomer(bytes32 _username,bytes32 _customerData,bytes32 _password) isBankValid isCustomerValid(_username) external returns(uint) {\n        if(passwords[_username] != 0) {\n\t        require(passwords[_username] == _password,\"IncorrectPassword\");\n\t    } else {\n\t        require(_password == \"0\",\"IncorrectDefaultPassword\");\n\t    }\n\t    UpdateFinalList(_username);\n\t    customers[_username].CustomerData  = _customerData;\n        customers[_username].Upvotes = 0;\n        customers[_username].Rating = 0;\n        customers[_username].Bank = msg.sender;\n        delete upvotes[_username];\n        emit ModifyCustomerEvent(msg.sender,_username,now);\n        return 1;\n\t}\n\t\n    // internal fuction \n\tfunction UpdateFinalList(bytes32 _username) internal {\n\t    if(final_customer[_username].CustomerData != 0){\n\t        delete final_customer[_username];\n\t    }\n\t}\n\n\tfunction viewCustomer(bytes32 _username,bytes32 _password) view public isBankValid isCustomerValid(_username) returns(bytes32){\n\t   if(passwords[_username] != 0) {\n\t        require(passwords[_username] == _password,\"IncorrectPassword\");\n\t    }\n\t    else{\n\t        require(_password == \"0\",\"IncorrectDefaultPassword\");\n\t    }\n\t\treturn customers[_username].CustomerData;\n\t}\n\t\n\t// Setting password in mapping using username as unique identifier.\n\tfunction setPassword(bytes32 _username,bytes32 _password) external isBankValid isCustomerValid(_username) returns(bool){\n\t    passwords[_username] = _password;\n\t    return true;\n\t}\n\n\t// Upvoting a customer. Checking if bank already upvoted in function modifier checkIfAlreadyUpvoted.\n\t// Pushing bank to array on mapping upvotes by username.\n\t// Calculating rating based on upvotes and number of banks and multiplying by 100. If required to show in decimal something which can be handled in UI so as to not handle decimal values in solidity.\n\tfunction upvote(bytes32 _username) isBankValid isCustomerValid(_username) checkIfAlreadyUpvoted(_username) external returns(uint isSuccess){\n        customers[_username].Upvotes = customers[_username].Upvotes + 1;\n        customers[_username].Rating = (customers[_username].Upvotes * 100 ) /noOfBanks ;\n        if(customers[_username].Rating > 50){\n            final_customer[_username] = customers[_username];\n        }\n        upvotes[_username].push(msg.sender);\n        emit UpvoteCustomerEvent(_username,msg.sender,now);\n        return 1;\n\t}\n\n\t// Iterating on requesrt array for a bank and filing allRequest array. Checking if any request are created by bank or there are no pending request by bank.\n\t// Initializing all request array using KYC_count of bank.\n\tfunction getBankRequests(address _bankAddress) view public isBankValid returns(KYCRequest[] memory){\n\t    require(banks[_bankAddress].KYC_count > 0,\"NoRequestExistsForBank\");\n\t    KYCRequest[] memory allRequests = new KYCRequest[](banks[_bankAddress].KYC_count);\n\t    uint index = 0;\n\t    for(uint i=0;i<requests.length;i++){\n\t        if(requests[i].BankAddress == _bankAddress){\n\t            allRequests[index] = requests[i];\n\t            index++;\n\t        }\n\t    }\n\t    require(index > 0,\"NoPendingRequestsExist\");\n\t    return allRequests;\n\t}\n\n\n\t// Using banksUpvoted mapping to store all banks upvoted for the bank using bankAddress as key.\n\t// checking if bank already upvoted using function modifier checkIfAlreadyUpvotedBank and bank cannot self vote.\n\tfunction upvoteBank(address _bankAddress) external isBankValid checkIfAlreadyUpvotedBank(_bankAddress) returns (uint){\n\t    require(_bankAddress != msg.sender,\"CannotSelfVote\");\n        banksUpvoted[_bankAddress].push(msg.sender);\n        banks[_bankAddress].Rating = (banksUpvoted[_bankAddress].length * 100) / noOfBanks ;\n        emit UpvoteBankEvent(_bankAddress,msg.sender,now);\n        return 1;\n\t}\n\t\n\t// Checking if address initializing the transaction is actually bank in function modifier isBankValid.\n\t// Checking if requested bank is added using require with reason message. \n\tfunction getBankRating(address _bankAddress) view public isBankValid returns(uint){\n\t    require(banks[_bankAddress].regNumber != 0, \"RequestedBankDoesNotExists\");\n\t    return banks[_bankAddress].Rating;\n\t}\n\t\n\n\tfunction getCustomerRating(bytes32 _username) view public isBankValid returns(uint){\n        require(customers[_username].CustomerData != 0, \"CustomerDoesNotExists\");\n\t    return customers[_username].Rating;\n\t}\n\t\n\tfunction getAccessHistory(bytes32 _username) view public isBankValid returns(address){\n\t    require(customers[_username].CustomerData != 0, \"CustomerDoesNotExists\");\n\t    return customers[_username].Bank;\n\t}\n\t\n\tfunction getBankDetails(address _bankAddress) view isBankValid public returns(Bank memory){\n\t    require(banks[_bankAddress].regNumber != 0, \"RequestedBankDoesNotExists\");\n\t    return banks[_bankAddress];\n\t}\n\t\n\t// modifier to check if bank already upvoted for customer.\n\tmodifier checkIfAlreadyUpvoted(bytes32 _username) { \n        for(uint i=0;i< upvotes[_username].length;i++) {\n            if(upvotes[_username][i] == msg.sender){\n               require(false,\"BankAlreadyUpvotedForCustomer\");\n            }\n        }\n        _;\n\t}\n\t\n\t// modifier to check if bank already upvoted for the bank.\n\tmodifier checkIfAlreadyUpvotedBank(address _bankAddress) { \n        for(uint i=0;i< banksUpvoted[_bankAddress].length;i++) {\n            if(banksUpvoted[_bankAddress][i] == msg.sender){\n               require(false,\"BankAlreadyUpvotedForBank\");\n            }\n        }\n        _;\n\t}\n\n\t// modifier to check if address initiating a transaction in added as bank.\n\tmodifier isBankValid() { \n\t    require(banks[msg.sender].regNumber != 0,\"BankDoesNotExists\");\n\t\t_;\n\t}\n\t\n\t// checking if requested customer is added as a customer in the system.\n\tmodifier isCustomerValid(bytes32 Username) { \n\t    require(customers[Username].CustomerData != 0,\"CustomerDoesNotExists\");\n\t\t_;\n\t}\n\t\n\t// checking while adding customer that is it allowed to process or no request exist for that username.\n\tmodifier isCustomerAllowed(bytes32 Username) { \n\t\tbool isCustomerAllowedRes = false;\n\t\tbool isCustomerPresent = false;\n\t    for(uint i=0;i<requests.length;i++){\n\t        if(requests[i].Username == Username ){\n\t            isCustomerPresent = true;\n\t            if(requests[i].IsAllowed){\n\t                isCustomerAllowedRes = requests[i].IsAllowed;\n\t                break;\n\t            }\n\t           \n\t        }\n\t    }\n\t    require(isCustomerPresent,\"CustomerRequestNotCreated\");\n\t    require(isCustomerAllowedRes,\"CustomerNotAllowedToProcess\");\n\t\t_;\n\t}\n\t\n    /*modifier validateBankVerification(string memory Username,string memory CustomerData) { \n    \tbool isRequestGeneratedRes = false;\n    \tbool isCustomerAllowedRes = false;\n\t    for(uint i=0;i<requests.length;i++){\n\t        if(keccak256(bytes(requests[i].Username)) == keccak256(bytes(Username))){\n\t            require(keccak256(bytes(requests[i].CustomerData)) == keccak256(bytes(CustomerData)),\"VerificationNotSuccessful\");\n\t            isRequestGeneratedRes = true;\n\t        }\n\t    }\n\t    require(isRequestGeneratedRes==true,\"RequestNotCreatedForCustomer\");\n\t\t_;\n\t}*/\n\t\n} \n",
  "sourcePath": "/home/aishwary/KYCProject/contracts/KYC.sol",
  "compiler": {
    "name": "solc",
    "version": "0.5.9+commit.e560f70d.Emscripten.clang"
  },
  "schemaVersion": "3.2.3",
  "updatedAt": "2020-09-13T18:10:16.948Z",
  "devdoc": {
    "methods": {}
  },
  "userdoc": {
    "methods": {}
  }
}